:100000000C942A000C9447000C9447000C94470071
:100010000C9447000C9447000C9447000C94470044
:100020000C9447000C9447000C9447000C94DD019D
:100030000C9447000C9447000C9447000C94470024
:100040000C9447000C9447000C9447000C94470014
:100050000C94470011241FBECFE5D4E0DEBFCDBF16
:1000600011E0A0E6B0E0EEEAF8E002C005900D92E3
:10007000AC3CB107D9F721E0ACECB1E001C01D9276
:10008000AC3DB207E1F70E942E030C9455040C948A
:100090000000CF93DF93EC0180E690E00E943F04E4
:1000A000CE010E943F0481E790E00E943F04DF916F
:1000B000CF91089584E790E00E943F040895CF9384
:1000C000DF93EC018EED90E00E943F04CE010E9490
:1000D0003F0481E790E00E943F04DF91CF910895B3
:1000E000CF93DF93EC018EEE90E00E943F04CE01AF
:1000F0000E943F0481E790E00E943F04DF91CF918E
:100100000895CF93DF93EC018CEF90E00E943F04C1
:10011000CE010E943F0481E790E00E943F04DF91FE
:10012000CF9108958CE091E00E943F040895CF9311
:10013000DF93EC0182E391E00E943F04CE010E9434
:100140003F0481E790E00E943F04DF91CF91089542
:100150000F931F93CF938C01C62F89E191E00E94EA
:100160003F04C8010E943F048CE291E00E943F04DA
:100170008C2F0E9437048FE291E00E943F04CF91C0
:100180001F910F910895DC018C91823259F0FD018D
:10019000319620E030E02F5F3F4FA90191919232DC
:1001A000D1F702C040E050E0FD01E40FF51F81816E
:1001B00008950F931F93CF93DF93CDB7DEB7C85C3D
:1001C000D1090FB6F894DEBF0FBECDBF8E010F5F11
:1001D0001F4F0E943B04F80181938F018A30C9F7B9
:1001E000CE0101960E94CA01FFEF21EE84E0F1509A
:1001F00020408040E1F700C000000E948801C85301
:10020000DF4F0FB6F894DEBF0FBECDBFDF91CF91A9
:100210001F910F9108950E943B048A30E1F70895E1
:10022000CF93DF93EC010E94CA018AE30E94790117
:100230000E944E04CE010E9449000E94D900DF9125
:10024000CF9108951F93CF93DF93EC01162F0E9457
:100250004E04612FCE010E94A8000E940B01DF9185
:10026000CF911F9108950F931F93CF93DF93CDB735
:10027000DEB764970FB6F894DEBF0FBECDBF8C011A
:100280000E944E04C8010E945F008E010F5F1F4F45
:100290000E943B04F80181938F018A30C9F7CE0197
:1002A00001960E94C30064960FB6F894DEBF0FBE9D
:1002B000CDBFDF91CF911F910F910895EFEDFEE239
:1002C0003197F1F700C0000090B39F70282F207F76
:1002D000292B22BB939A9398EFEDFEE23197F1F729
:1002E00000C000008295807F982B92BB939A9398D0
:1002F0000895929A0E945E0182E78A95F1F700C004
:10030000089592980E945E0188E68A95F1F7089513
:100310002FEF89EF90E0215080409040E1F700C03E
:10032000000080E382BB939A9398E8E6EA95F1F7A0
:10033000EFECF7E03197F1F700C0000082BB939A31
:100340009398F8E6FA95F1F78FEC97E00197F1F7BB
:1003500000C0000080E282BB939A939898E69A9539
:10036000F1F7EFECF7E03197F1F700C0000088E219
:100370000E9481018CE00E94810181E00E94810144
:1003800083EF9BE00197F1F700C0000086E00E9438
:1003900081010895CF93DF93EC018881882351F088
:1003A0008A3041F021960E9479018991882311F0C9
:1003B0008A30C9F7DF91CF9108951F920F920FB63F
:1003C0000F9211248F939F938CB18A3031F481E086
:1003D00090E09093DB018093DA019F918F910F90D1
:1003E0000FBE0F901F901895EF92FF920F931F93DF
:1003F000CF93DF937C018B01EA010E9488018EE399
:1004000091E00E94CA0123E330E046E868E980E019
:100410000E9424048AE00E9437040E9492002FEF79
:1004200084E39CE0215080409040E1F700C0000050
:100430000E944E04C7010E9497000E940B01C80150
:100440000E9481000E940B01CE010E9470000E9458
:100450000B010E945A000E94D900DF91CF911F9199
:100460000F91FF90EF90089583B380FF12C0209109
:10047000D7013091D801232B09F44AC01092D8013A
:100480001092D70121E030E03093D2012093D101C6
:100490003FC081FF12C02091D7013091D801213097
:1004A0003105C9F121E030E03093D8012093D70124
:1004B0003093D2012093D1012EC082FF14C020912D
:1004C000D7013091D8012230310541F122E030E0EE
:1004D0003093D8012093D70121E030E03093D2014E
:1004E0002093D1011BC083FF1BC08091D701909145
:1004F000D8010397A9F083E090E09093D80180930E
:10050000D70181E090E09093D2018093D1010895CA
:1005100081FDC8CFD2CF82FDD9CFE5CF83FDEBCF10
:100520000895CF93DF93EB010E943301C130D105D1
:10053000B9F01CF4CD2B39F039C0C230D105E9F047
:10054000239741F133C09091CC01891779F18093C1
:10055000CC0181E090E09093D0018093CF0126C040
:100560009091D401891711F18093D40181E090E03A
:100570009093D0018093CF0119C09091D901891730
:10058000A9F08093D90181E090E09093D00180930D
:10059000CF010CC09091CE01891741F08093CE011C
:1005A00081E090E09093D0018093CF01DF91CF91D3
:1005B0000895CF93C82F813430F083E20E947901EF
:1005C000C13830F40BC087E491E00E94CA011EC01C
:1005D00083E20E947901C13C30F40BC089E491E0D0
:1005E0000E94CA0113C083E20E947901C93F50F002
:1005F00005C08BE491E00E94CA0108C083E20E941A
:10060000790104C08DE491E00E94CA01CF91089560
:100610000E94880180E591E00E94CA018091CC018E
:100620000E94D90284E591E00E94CA018091D40120
:100630000E94D9028AE00E94790189E591E00E9436
:10064000CA018091D9010E94D9028DE591E00E94F2
:10065000CA018091CE010E94D90208951092DB0157
:100660001092DA011092D8011092D70181E090E047
:100670009093D2018093D1019093D0018093CF01C8
:1006800080EC84BB8FEF87BB81BB42E651E06EE616
:1006900071E08BE791E00E94F40188E891E00E940C
:1006A00010016FEF88E891E00E94220180E991E05B
:1006B0000E9410016FEF80E991E00E94220188E919
:1006C00091E00E9410016FEF88E991E00E94220101
:1006D00080EA91E00E9410016FEF80EA91E00E94B1
:1006E000220188EA91E00E94100161E088EA91E02D
:1006F0000E94220181EB91E00E94100161E081EBF8
:1007000091E00E9422018AEB91E00E94100161E0D9
:100710008AEB91E00E94220183EC91E00E9410019B
:1007200061E083EC91E00E94220178948091D101F4
:100730009091D2010097A9F48091DA019091DB01A8
:10074000892BA9F40E9434028091D1019091D201A9
:10075000009739F48091DA019091DB01892B91F3B4
:1007600006C0019721F41092D2011092D10180911C
:10077000DA019091DB01019721F41092DB011092D4
:10078000DA01F89488E891E00E9433018093D60161
:1007900080E991E00E9433018093CD0188E991E0E6
:1007A0000E9433018093D50180EA91E00E943301D9
:1007B0008093D30160E070E088EA91E00E949102AA
:1007C00061E070E081EB91E00E94910262E070E0F4
:1007D0008AEB91E00E94910263E070E083EC91E08B
:1007E0000E9491028091CF019091D001019731F444
:1007F0001092D0011092CF010E9408038091D7017E
:100800009091D801892B19F48091D60188BB8091F1
:10081000D7019091D801019719F48091CD0188BB3F
:100820008091D7019091D801029719F48091D50158
:1008300088BB8091D7019091D801039709F075CFBB
:100840008091D30188BB71CFCF93DF9300D0CDB718
:10085000DEB73A8329838BB96AB940BD898189B9EA
:100860008A8180BD0F900F90DF91CF9108955D9B9D
:10087000FECF8CB908955F9BFECF8CB10895CF93C6
:10088000DF93EC018881882331F021960E943704A0
:1008900089918111FBCFDF91CF9108955F9B04C0B7
:0E08A0000E943B045F99FCCF0895F894FFCFAF
:1008AE004553503A61646453656E736F723A2022F9
:1008BE0000220A004553503A415053746172740A33
:1008CE00004553503A62617564726174653A202234
:1008DE00004553503A636C69656E745472616E7361
:1008EE006D69740A004553503A636F6E6E6563749A
:1008FE000A004553503A64656275673A20220045F6
:10090E0053503A68656C700A004553503A676574E7
:10091E00416C6C56616C7565734553500A004553B6
:10092E00503A67657456616C75653A2022004553DE
:10093E00503A686F737449503A2022004553503A2A
:10094E0070617373776F72643A2022004553503A88
:10095E00726573746172740A004553503A73656E12
:10096E00736F7256616C75653A202200225B005DD2
:10097E000A004553503A737369643A202200476166
:10098E0074657761793A00202020202020202000F5
:10099E0050313A007C50323A0050333A007C503499
:1009AE003A003139322E3136382E342E31006B70FA
:1009BE0054657374313233343536006B705353498A
:1009CE0044313233343536005469636B657430000C
:1009DE005469636B657431005469636B65743200DE
:1009EE005469636B657433005061726B696E673066
:1009FE00005061726B696E6731005061726B696E87
:0C0A0E006732005061726B696E67330044
:00000001FF
