:100000000C943E000C945B000C945B000C945B0021
:100010000C945B000C945B000C945B000C945B00F4
:100020000C9411040C945B000C945B000C945B002A
:100030000C945B000C945B000C9425040C945B0006
:100040000C945B000C945B000C945B000C945B00C4
:100050000C945B00380308030A030C030E0310031F
:10006000120314033603360336033603360336030E
:100070003603360316031E0326032E0311241FBE68
:10008000CFE5D4E0DEBFCDBF11E0A0E6B0E0E2E115
:10009000FCE002C005900D92AC3EB107D9F721E01B
:1000A000ACEEB1E001C01D92AD3FB207E1F70E9496
:1000B000EE040C9407060C940000CF93DF93EC0140
:1000C00080E690E00E94DC05CE010E94DC0581E71D
:1000D00090E00E94DC05DF91CF91089582E990E0E5
:1000E0000E94DC05089586EA90E00E94DC050895F0
:1000F000CF93DF93EC0183EB90E00E94DC05CE010F
:100100000E94DC0581E790E00E94DC05DF91CF9141
:100110000895CF93DF93EC018FEE90E00E94DC0511
:10012000CE010E94DC0581E790E00E94DC05DF91B2
:10013000CF910895CF93DF93EC018DEF90E00E9473
:10014000DC05CE010E94DC0581E790E00E94DC0521
:10015000DF91CF9108958DE091E00E94DC05089534
:10016000CF93DF93EC0183E391E00E94DC05CE01A5
:100170000E94DC0581E790E00E94DC05DF91CF91D1
:1001800008950F931F93CF938C01C62F8AE191E0BE
:100190000E94DC05C8010E94DC058DE291E00E940E
:1001A000DC058C2F0E94D40580E391E00E94DC05E1
:1001B000CF911F910F9108950F931F93CF93DF93CA
:1001C000CDB7DEB7C456D1090FB6F894DEBF0FBE67
:1001D000CDBF8E010F5F1F4F0E94D805F80181939C
:1001E0008F018A30C9F7CE0101960E945002FFEFBD
:1001F00021EE84E0F15020408040E1F700C0000093
:100200000E940E02CC59DF4F0FB6F894DEBF0FBE2E
:10021000CDBFDF91CF911F910F9108950E94D80516
:100220008A30E1F70895CF93DF93EC010E945002EA
:100230008AE30E94FF010E94EB05CE010E945D004F
:100240000E94DC00DF91CF9108951F93CF93DF933D
:10025000EC01162F0E94EB05612FCE010E94C10018
:100260000E940E01DF91CF911F9108950E94EB052E
:100270000E9473000E940E010E946E00089585BBCB
:1002800087EE93E00197F1F700C0000083B38F7011
:100290000895CF93DF9380E10E943F01C82FC2955C
:1002A00080E20E943F01C80F80E40E943F01D82FE6
:1002B000D29580E80E943F012C2F30E0322F222778
:1002C0008D0FA901480F511DCA01DF91CF910895EB
:1002D0000F931F93CF93DF93EC010E9449018C0190
:1002E0008FE295E70197F1F700C000000E944901F5
:1002F00080239123C095D0958C239D23DF91CF91AE
:100300001F910F9108958038910509F447C0C0F4FA
:1003100088309105D9F150F48230910599F18430FB
:10032000910591F1019709F04BC04CC080329105C5
:1003300089F18034910581F1409709F041C028C0CE
:10034000811528E0920791F160F4811522E092076F
:1003500049F1811524E0920739F18115914081F529
:100360001FC0811520E2920729F120F481159041E8
:10037000F9F026C0811520E49207F1F0811590482C
:10038000E9F01EC080E3089583E2089584E40895AF
:1003900087E3089588E3089589E3089583E4089541
:1003A00084E3089585E3089586E3089582E408953B
:1003B00081E3089582E3089583E3089581E4089535
:1003C00080E008958AE20895EFEDFEE23197F1F7BB
:1003D00000C0000090B39F70282F207F292B22BBE4
:1003E000939A9398EFEDFEE23197F1F700C0000089
:1003F0008295807F982B92BB939A93980895929AB6
:100400000E94E40182E78A95F1F700C0089592986E
:100410000E94E40188E68A95F1F708952FEF89EFAD
:1004200090E0215080409040E1F700C0000080E360
:1004300082BB939A9398E8E6EA95F1F7EFECF7E040
:100440003197F1F700C0000082BB939A9398F8E6C9
:10045000FA95F1F78FEC97E00197F1F700C00000F3
:1004600080E282BB939A939898E69A95F1F7EFEC25
:10047000F7E03197F1F700C0000088E20E94070220
:100480008CE00E94070281E00E94070283EF9BE05C
:100490000197F1F700C0000086E00E94070208956E
:1004A000CF93DF93EC018881882351F08A3041F0AB
:1004B00021960E94FF018991882311F08A30C9F7A3
:1004C000DF91CF910895EF92FF920F931F93CF93F7
:1004D000DF937C018B01EA010E940E028FE391E021
:1004E0000E94500223E330E046E868E180E00E9489
:1004F000C1058AE00E94D4050E94AB002FEF84E37F
:100500009CE0215080409040E1F700C000000E9434
:10051000EB0585E491E00E9478000E94DC00C701B1
:100520000E94B0000E94DC00C8010E949A000E9454
:10053000DC00CE010E9489000E94DC000E94730052
:100540000E94DC000E940E028AE491E00E94780082
:100550000E94DC00DF91CF911F910F91FF90EF90EF
:1005600008958A3029F41092F4011092F30112C018
:100570008B3039F481E090E09093F4018093F301A3
:1005800008958C3039F482E090E09093F4018093E8
:10059000F30108958D3031F483E090E09093F401FD
:1005A0008093F30108950E940E028091F3019091CF
:1005B000F401892B21F480E591E00E9450028091A2
:1005C000F3019091F401019721F48BE591E00E94F1
:1005D00050028091F3019091F401029721F486E694
:1005E00091E00E9450028091F3019091F4010397F1
:1005F00021F481E791E00E945002089590E0FC010F
:10060000F197E431F10590F5E65DFF4F0C94F205AA
:1006100081E0089582E0089583E0089584E00895DC
:1006200085E0089586E0089587E008950E940E020F
:1006300080E591E00E9450028AE008950E940E0237
:100640008BE591E00E9450028BE008950E940E021B
:1006500086E691E00E9450028CE008950E940E020E
:1006600081E791E00E9450028DE0089588E00895AE
:1006700080E00895883008F0D3C02091F3013091D4
:10068000F40121303105E9F11CF4232B51F00895D8
:100690002230310509F465C02330310509F491C0D9
:1006A00008956091F201262F30E0082E02C03595A2
:1006B00027950A94E2F720FD12C021E030E0A9015D
:1006C00002C0440F551F8A95E2F7642B6093F20134
:1006D0008CE791E00E9425010E94360108950E9456
:1006E0000E0284E891E00E9450025FEF82E597E0FD
:1006F000515080409040E1F700C000000E94D302BA
:1007000008956091ED01262F30E0082E02C0359546
:1007100027950A94E2F720FD12C021E030E0A901FC
:1007200002C0440F551F8A95E2F7642B6093ED01D8
:1007300089E891E00E9425010E94360108950E94F7
:100740000E0284E891E00E9450025FEF82E597E09C
:10075000515080409040E1F700C000000E94D30259
:1007600008956091F101262F30E0082E02C03595E2
:1007700027950A94E2F720FD12C021E030E0A9019C
:1007800002C0440F551F8A95E2F7642B6093F10174
:1007900081E991E00E9425010E94360108950E949E
:1007A0000E0284E891E00E9450025FEF82E597E03C
:1007B000515080409040E1F700C000000E94D302F9
:1007C00008956091EF01262F30E0082E02C0359584
:1007D00027950A94E2F720FD12C021E030E0A9013C
:1007E00002C0440F551F8A95E2F7642B6093EF0116
:1007F00089E991E00E9425010E94360108950E9436
:100800000E0284E891E00E9450025FEF82E597E0DB
:10081000515080409040E1F700C000000E94D30298
:1008200008951F920F920FB60F9211248F939F93EA
:100830008FEC86B989E697E69DBD8CBD9F918F911F
:100840000F900FBE0F901F9018951F920F920FB62A
:100850000F9211242F933F934F935F936F937F9346
:100860008F939F93AF93BF93EF93FF9384B195B111
:100870009093F7018093F6012091F6013091F701F2
:10088000ABEABAEA0E94F805969587954096909350
:10089000F7018093F6018091F3019091F401892B87
:1008A000F9F48091F6019091EC01891709F461C087
:1008B0008093EC0181E090E09093FC018093FB0138
:1008C0008091EC01811106C061E081EA91E00E9413
:1008D000250106C06091EC0181EA91E00E942501AA
:1008E0008091F3019091F4010197F9F48091F60160
:1008F0009091F001891709F460C08093F00181E0C4
:1009000090E09093FC018093FB018091F0018111B4
:1009100006C061E08AEA91E00E94250106C060916C
:10092000F0018AEA91E00E9425018091F301909103
:10093000F4010297F1F48091F6019091FA01891780
:10094000E1F18093FA0181E090E09093FC018093C3
:10095000FB018091FA01811106C061E083EB91E017
:100960000E94250106C06091FA0183EB91E00E948C
:1009700025018091F3019091F4010397F1F48091A6
:10098000F6019091EE018917C1F08093EE0181E0AC
:1009900090E09093FC018093FB018091EE01811126
:1009A00006C061E08CEB91E00E94250106C06091D9
:1009B000EE018CEB91E00E942501FF91EF91BF9138
:1009C000AF919F918F917F916F915F914F913F91E7
:1009D0002F910F900FBE0F901F9018951092F90154
:1009E0001092F8011092F4011092F3011092EF01AD
:1009F0001092F1011092ED011092F20181E08093CA
:100A0000EE018093FA018093F0018093EC01109243
:100A1000FC011092FB011092F7011092F6018EEE8C
:100A200087BB80EF84BB8FEF81BB84E089BF85E00B
:100A30008EBD89E697E69DBD8CBD80E487B945EC07
:100A400051E061ED71E08EED91E00E9463028CE770
:100A500091E00E9413016FEF8CE791E00E94250165
:100A600089E891E00E9413016FEF89E891E00E940C
:100A7000250181E991E00E9413016FEF81E991E086
:100A80000E94250189E991E00E9413016FEF89E935
:100A900091E00E94250181EA91E00E94130160919A
:100AA000EC0181EA91E00E9425018AEA91E00E942E
:100AB00013016091F0018AEA91E00E94250183EB25
:100AC00091E00E9413016091FA0183EB91E00E9492
:100AD00025018CEB91E00E9413016091EE018CEBFB
:100AE00091E00E9425010E940E0280E591E00E94A3
:100AF000500278941092F5018091FB019091FC01D5
:100B0000892B81F58091F8019091F9010E9468018B
:100B10000E9483018093F50181111CC08091FB012B
:100B20009091FC01892B71F324C01092FC0110926A
:100B3000FB010E9436018091F5018823D9F20E94C1
:100B4000FE028093F5010E94B1028091F5010E949E
:100B50003A03D0CF2091FB013091FC0121303105C7
:100B600021F3EDCF8091FB019091FC01019711F6EB
:100B7000DCCF8091FB019091FC01019709F0BACF85
:100B8000D4CFCF93DF9300D0CDB7DEB73A8329839C
:100B90008BB96AB940BD898189B98A8180BD0F90BE
:100BA0000F90DF91CF9108955D9BFECF8CB9089592
:100BB0005F9BFECF8CB10895CF93DF93EC018881CA
:100BC000882331F021960E94D40589918111FBCFB1
:100BD000DF91CF9108955F9B04C00E94D8055F9973
:100BE000FCCF0895EE0FFF1F0590F491E02D0994BE
:100BF000A29FB001B39FC001A39F700D811D11245E
:100C0000911DB29F700D811D1124911D0895F894BE
:020C1000FFCF14
:100C12004553503A61646453656E736F723A202291
:100C220000220A004553503A415053746172740ACB
:100C3200004553503A2062617564726174653A20CE
:100C420022004553503A636C69656E745472616E4A
:100C5200736D69740A004553503A636F6E6E656333
:100C6200740A004553503A64656275673A2022005F
:100C72004553503A68656C700A004553503A6765AF
:100C820074416C6C56616C7565734553500A00452E
:100C920053503A67657456616C75653A2022004577
:100CA20053503A686F737449503A202200455350AA
:100CB2003A70617373776F72643A20220045535021
:100CC2003A726573746172740A004553503A7365DF
:100CD2006E736F7256616C75653A202200225B005A
:100CE2005D0A004553503A737369643A2022004EFC
:100CF2006F64653A00747275650066616C736500B5
:100D0200426C656163686572204100426C65616393
:100D1200686572204200426C6561636865722043B7
:100D220000426C6561636865722044005469636BBC
:100D32006574300053746F70005469636B6574316D
:100D4200005469636B657432005469636B65743374
:100D5200005061726B696E6730005061726B696E30
:100D62006731005061726B696E6732005061726B5D
:100D7200696E6733003139322E3136382E342E31D6
:100D8200006B7054657374313233343536006B70D6
:0C0D9200535349443132333435360000ED
:00000001FF
